{
    "_format": "hh-sol-artifact-1",
    "contractName": "ProjectNFT",
    "sourceName": "contracts/CrowdFunding.sol",
    "abi": [
        {
            "inputs": [],
            "stateMutability": "nonpayable",
            "type": "constructor"
        },
        {
            "inputs": [
                {
                    "internalType": "address",
                    "name": "sender",
                    "type": "address"
                },
                {
                    "internalType": "uint256",
                    "name": "tokenId",
                    "type": "uint256"
                },
                {
                    "internalType": "address",
                    "name": "owner",
                    "type": "address"
                }
            ],
            "name": "ERC721IncorrectOwner",
            "type": "error"
        },
        {
            "inputs": [
                {
                    "internalType": "address",
                    "name": "operator",
                    "type": "address"
                },
                {
                    "internalType": "uint256",
                    "name": "tokenId",
                    "type": "uint256"
                }
            ],
            "name": "ERC721InsufficientApproval",
            "type": "error"
        },
        {
            "inputs": [
                {
                    "internalType": "address",
                    "name": "approver",
                    "type": "address"
                }
            ],
            "name": "ERC721InvalidApprover",
            "type": "error"
        },
        {
            "inputs": [
                {
                    "internalType": "address",
                    "name": "operator",
                    "type": "address"
                }
            ],
            "name": "ERC721InvalidOperator",
            "type": "error"
        },
        {
            "inputs": [
                {
                    "internalType": "address",
                    "name": "owner",
                    "type": "address"
                }
            ],
            "name": "ERC721InvalidOwner",
            "type": "error"
        },
        {
            "inputs": [
                {
                    "internalType": "address",
                    "name": "receiver",
                    "type": "address"
                }
            ],
            "name": "ERC721InvalidReceiver",
            "type": "error"
        },
        {
            "inputs": [
                {
                    "internalType": "address",
                    "name": "sender",
                    "type": "address"
                }
            ],
            "name": "ERC721InvalidSender",
            "type": "error"
        },
        {
            "inputs": [
                {
                    "internalType": "uint256",
                    "name": "tokenId",
                    "type": "uint256"
                }
            ],
            "name": "ERC721NonexistentToken",
            "type": "error"
        },
        {
            "anonymous": false,
            "inputs": [
                {
                    "indexed": true,
                    "internalType": "address",
                    "name": "owner",
                    "type": "address"
                },
                {
                    "indexed": true,
                    "internalType": "address",
                    "name": "approved",
                    "type": "address"
                },
                {
                    "indexed": true,
                    "internalType": "uint256",
                    "name": "tokenId",
                    "type": "uint256"
                }
            ],
            "name": "Approval",
            "type": "event"
        },
        {
            "anonymous": false,
            "inputs": [
                {
                    "indexed": true,
                    "internalType": "address",
                    "name": "owner",
                    "type": "address"
                },
                {
                    "indexed": true,
                    "internalType": "address",
                    "name": "operator",
                    "type": "address"
                },
                {
                    "indexed": false,
                    "internalType": "bool",
                    "name": "approved",
                    "type": "bool"
                }
            ],
            "name": "ApprovalForAll",
            "type": "event"
        },
        {
            "anonymous": false,
            "inputs": [
                {
                    "indexed": true,
                    "internalType": "address",
                    "name": "from",
                    "type": "address"
                },
                {
                    "indexed": true,
                    "internalType": "address",
                    "name": "to",
                    "type": "address"
                },
                {
                    "indexed": true,
                    "internalType": "uint256",
                    "name": "tokenId",
                    "type": "uint256"
                }
            ],
            "name": "Transfer",
            "type": "event"
        },
        {
            "inputs": [
                {
                    "internalType": "address",
                    "name": "to",
                    "type": "address"
                },
                {
                    "internalType": "uint256",
                    "name": "tokenId",
                    "type": "uint256"
                }
            ],
            "name": "approve",
            "outputs": [],
            "stateMutability": "nonpayable",
            "type": "function"
        },
        {
            "inputs": [
                {
                    "internalType": "address",
                    "name": "owner",
                    "type": "address"
                }
            ],
            "name": "balanceOf",
            "outputs": [
                {
                    "internalType": "uint256",
                    "name": "",
                    "type": "uint256"
                }
            ],
            "stateMutability": "view",
            "type": "function"
        },
        {
            "inputs": [
                {
                    "internalType": "uint256",
                    "name": "tokenId",
                    "type": "uint256"
                }
            ],
            "name": "getApproved",
            "outputs": [
                {
                    "internalType": "address",
                    "name": "",
                    "type": "address"
                }
            ],
            "stateMutability": "view",
            "type": "function"
        },
        {
            "inputs": [
                {
                    "internalType": "uint256",
                    "name": "index",
                    "type": "uint256"
                }
            ],
            "name": "getProjectByIndex",
            "outputs": [
                {
                    "components": [
                        {
                            "internalType": "string",
                            "name": "name",
                            "type": "string"
                        },
                        {
                            "internalType": "string",
                            "name": "description",
                            "type": "string"
                        },
                        {
                            "internalType": "string",
                            "name": "imageLink",
                            "type": "string"
                        }
                    ],
                    "internalType": "struct ProjectNFT.Project",
                    "name": "",
                    "type": "tuple"
                }
            ],
            "stateMutability": "view",
            "type": "function"
        },
        {
            "inputs": [],
            "name": "getTokenCounter",
            "outputs": [
                {
                    "internalType": "uint256",
                    "name": "",
                    "type": "uint256"
                }
            ],
            "stateMutability": "view",
            "type": "function"
        },
        {
            "inputs": [],
            "name": "getTotalProjects",
            "outputs": [
                {
                    "internalType": "uint256",
                    "name": "",
                    "type": "uint256"
                }
            ],
            "stateMutability": "view",
            "type": "function"
        },
        {
            "inputs": [
                {
                    "internalType": "address",
                    "name": "owner",
                    "type": "address"
                },
                {
                    "internalType": "address",
                    "name": "operator",
                    "type": "address"
                }
            ],
            "name": "isApprovedForAll",
            "outputs": [
                {
                    "internalType": "bool",
                    "name": "",
                    "type": "bool"
                }
            ],
            "stateMutability": "view",
            "type": "function"
        },
        {
            "inputs": [
                {
                    "internalType": "string",
                    "name": "projectName",
                    "type": "string"
                },
                {
                    "internalType": "string",
                    "name": "projectDescription",
                    "type": "string"
                },
                {
                    "internalType": "string",
                    "name": "ipfsImageLink",
                    "type": "string"
                }
            ],
            "name": "mintNFT",
            "outputs": [],
            "stateMutability": "nonpayable",
            "type": "function"
        },
        {
            "inputs": [],
            "name": "name",
            "outputs": [
                {
                    "internalType": "string",
                    "name": "",
                    "type": "string"
                }
            ],
            "stateMutability": "view",
            "type": "function"
        },
        {
            "inputs": [
                {
                    "internalType": "uint256",
                    "name": "tokenId",
                    "type": "uint256"
                }
            ],
            "name": "ownerOf",
            "outputs": [
                {
                    "internalType": "address",
                    "name": "",
                    "type": "address"
                }
            ],
            "stateMutability": "view",
            "type": "function"
        },
        {
            "inputs": [
                {
                    "internalType": "uint256",
                    "name": "",
                    "type": "uint256"
                }
            ],
            "name": "projects",
            "outputs": [
                {
                    "internalType": "string",
                    "name": "name",
                    "type": "string"
                },
                {
                    "internalType": "string",
                    "name": "description",
                    "type": "string"
                },
                {
                    "internalType": "string",
                    "name": "imageLink",
                    "type": "string"
                }
            ],
            "stateMutability": "view",
            "type": "function"
        },
        {
            "inputs": [
                {
                    "internalType": "address",
                    "name": "from",
                    "type": "address"
                },
                {
                    "internalType": "address",
                    "name": "to",
                    "type": "address"
                },
                {
                    "internalType": "uint256",
                    "name": "tokenId",
                    "type": "uint256"
                }
            ],
            "name": "safeTransferFrom",
            "outputs": [],
            "stateMutability": "nonpayable",
            "type": "function"
        },
        {
            "inputs": [
                {
                    "internalType": "address",
                    "name": "from",
                    "type": "address"
                },
                {
                    "internalType": "address",
                    "name": "to",
                    "type": "address"
                },
                {
                    "internalType": "uint256",
                    "name": "tokenId",
                    "type": "uint256"
                },
                {
                    "internalType": "bytes",
                    "name": "data",
                    "type": "bytes"
                }
            ],
            "name": "safeTransferFrom",
            "outputs": [],
            "stateMutability": "nonpayable",
            "type": "function"
        },
        {
            "inputs": [
                {
                    "internalType": "address",
                    "name": "operator",
                    "type": "address"
                },
                {
                    "internalType": "bool",
                    "name": "approved",
                    "type": "bool"
                }
            ],
            "name": "setApprovalForAll",
            "outputs": [],
            "stateMutability": "nonpayable",
            "type": "function"
        },
        {
            "inputs": [
                {
                    "internalType": "bytes4",
                    "name": "interfaceId",
                    "type": "bytes4"
                }
            ],
            "name": "supportsInterface",
            "outputs": [
                {
                    "internalType": "bool",
                    "name": "",
                    "type": "bool"
                }
            ],
            "stateMutability": "view",
            "type": "function"
        },
        {
            "inputs": [],
            "name": "symbol",
            "outputs": [
                {
                    "internalType": "string",
                    "name": "",
                    "type": "string"
                }
            ],
            "stateMutability": "view",
            "type": "function"
        },
        {
            "inputs": [
                {
                    "internalType": "uint256",
                    "name": "tokenId",
                    "type": "uint256"
                }
            ],
            "name": "tokenURI",
            "outputs": [
                {
                    "internalType": "string",
                    "name": "",
                    "type": "string"
                }
            ],
            "stateMutability": "view",
            "type": "function"
        },
        {
            "inputs": [
                {
                    "internalType": "address",
                    "name": "from",
                    "type": "address"
                },
                {
                    "internalType": "address",
                    "name": "to",
                    "type": "address"
                },
                {
                    "internalType": "uint256",
                    "name": "tokenId",
                    "type": "uint256"
                }
            ],
            "name": "transferFrom",
            "outputs": [],
            "stateMutability": "nonpayable",
            "type": "function"
        }
    ],
    "bytecode": "0x60806040523480156200001157600080fd5b506040518060400160405280600a81526020017f50726f6a6563744e4654000000000000000000000000000000000000000000008152506040518060400160405280600481526020017f504e46540000000000000000000000000000000000000000000000000000000081525081600090816200008f91906200032c565b508060019081620000a191906200032c565b505050600060068190555062000413565b600081519050919050565b7f4e487b7100000000000000000000000000000000000000000000000000000000600052604160045260246000fd5b7f4e487b7100000000000000000000000000000000000000000000000000000000600052602260045260246000fd5b600060028204905060018216806200013457607f821691505b6020821081036200014a5762000149620000ec565b5b50919050565b60008190508160005260206000209050919050565b60006020601f8301049050919050565b600082821b905092915050565b600060088302620001b47fffffffffffffffffffffffffffffffffffffffffffffffffffffffffffffffff8262000175565b620001c0868362000175565b95508019841693508086168417925050509392505050565b6000819050919050565b6000819050919050565b60006200020d620002076200020184620001d8565b620001e2565b620001d8565b9050919050565b6000819050919050565b6200022983620001ec565b62000241620002388262000214565b84845462000182565b825550505050565b600090565b6200025862000249565b620002658184846200021e565b505050565b5b818110156200028d57620002816000826200024e565b6001810190506200026b565b5050565b601f821115620002dc57620002a68162000150565b620002b18462000165565b81016020851015620002c1578190505b620002d9620002d08562000165565b8301826200026a565b50505b505050565b600082821c905092915050565b60006200030160001984600802620002e1565b1980831691505092915050565b60006200031c8383620002ee565b9150826002028217905092915050565b6200033782620000b2565b67ffffffffffffffff811115620003535762000352620000bd565b5b6200035f82546200011b565b6200036c82828562000291565b600060209050601f831160018114620003a457600084156200038f578287015190505b6200039b85826200030e565b8655506200040b565b601f198416620003b48662000150565b60005b82811015620003de57848901518255600182019150602085019450602081019050620003b7565b86831015620003fe5784890151620003fa601f891682620002ee565b8355505b6001600288020188555050505b505050505050565b61277580620004236000396000f3fe608060405234801561001057600080fd5b50600436106101165760003560e01c80636352211e116100a257806395d89b411161007157806395d89b4114610307578063a22cb46514610325578063b88d4fde14610341578063c87b56dd1461035d578063e985e9c51461038d57610116565b80636352211e1461026b5780636e02007d1461029b57806370a08231146102b9578063812739a2146102e957610116565b80630c3b7b72116100e95780630c3b7b72146101b5578063107046bd146101d157806323b872dd146102035780632b7e328a1461021f57806342842e0e1461024f57610116565b806301ffc9a71461011b57806306fdde031461014b578063081812fc14610169578063095ea7b314610199575b600080fd5b61013560048036038101906101309190611a60565b6103bd565b6040516101429190611aa8565b60405180910390f35b61015361049f565b6040516101609190611b53565b60405180910390f35b610183600480360381019061017e9190611bab565b610531565b6040516101909190611c19565b60405180910390f35b6101b360048036038101906101ae9190611c60565b61054d565b005b6101cf60048036038101906101ca9190611dd5565b610563565b005b6101eb60048036038101906101e69190611bab565b61068f565b6040516101fa93929190611e7c565b60405180910390f35b61021d60048036038101906102189190611ec8565b610851565b005b61023960048036038101906102349190611bab565b610953565b6040516102469190611fc3565b60405180910390f35b61026960048036038101906102649190611ec8565b610b8c565b005b61028560048036038101906102809190611bab565b610bac565b6040516102929190611c19565b60405180910390f35b6102a3610bbe565b6040516102b09190611ff4565b60405180910390f35b6102d360048036038101906102ce919061200f565b610bc8565b6040516102e09190611ff4565b60405180910390f35b6102f1610c82565b6040516102fe9190611ff4565b60405180910390f35b61030f610c8f565b60405161031c9190611b53565b60405180910390f35b61033f600480360381019061033a9190612068565b610d21565b005b61035b60048036038101906103569190612149565b610d37565b005b61037760048036038101906103729190611bab565b610d54565b6040516103849190611b53565b60405180910390f35b6103a760048036038101906103a291906121cc565b610dfc565b6040516103b49190611aa8565b60405180910390f35b60007f80ac58cd000000000000000000000000000000000000000000000000000000007bffffffffffffffffffffffffffffffffffffffffffffffffffffffff1916827bffffffffffffffffffffffffffffffffffffffffffffffffffffffff1916148061048857507f5b5e139f000000000000000000000000000000000000000000000000000000007bffffffffffffffffffffffffffffffffffffffffffffffffffffffff1916827bffffffffffffffffffffffffffffffffffffffffffffffffffffffff1916145b80610498575061049782610e90565b5b9050919050565b6060600080546104ae9061223b565b80601f01602080910402602001604051908101604052809291908181526020018280546104da9061223b565b80156105275780601f106104fc57610100808354040283529160200191610527565b820191906000526020600020905b81548152906001019060200180831161050a57829003601f168201915b5050505050905090565b600061053c82610efa565b5061054682610f82565b9050919050565b61055f828261055a610fbf565b610fc7565b5050565b600060065490506105743382610fd9565b6040518060600160405280858152602001848152602001838152506007600083815260200190815260200160002060008201518160000190816105b79190612418565b5060208201518160010190816105cd9190612418565b5060408201518160020190816105e39190612418565b509050506008604051806060016040528086815260200185815260200184815250908060018154018082558091505060019003906000526020600020906003020160009091909190915060008201518160000190816106429190612418565b5060208201518160010190816106589190612418565b50604082015181600201908161066e9190612418565b5050506006600081548092919061068490612519565b919050555050505050565b60076020528060005260406000206000915090508060000180546106b29061223b565b80601f01602080910402602001604051908101604052809291908181526020018280546106de9061223b565b801561072b5780601f106107005761010080835404028352916020019161072b565b820191906000526020600020905b81548152906001019060200180831161070e57829003601f168201915b5050505050908060010180546107409061223b565b80601f016020809104026020016040519081016040528092919081815260200182805461076c9061223b565b80156107b95780601f1061078e576101008083540402835291602001916107b9565b820191906000526020600020905b81548152906001019060200180831161079c57829003601f168201915b5050505050908060020180546107ce9061223b565b80601f01602080910402602001604051908101604052809291908181526020018280546107fa9061223b565b80156108475780601f1061081c57610100808354040283529160200191610847565b820191906000526020600020905b81548152906001019060200180831161082a57829003601f168201915b5050505050905083565b600073ffffffffffffffffffffffffffffffffffffffff168273ffffffffffffffffffffffffffffffffffffffff16036108c35760006040517f64a0ae920000000000000000000000000000000000000000000000000000000081526004016108ba9190611c19565b60405180910390fd5b60006108d783836108d2610fbf565b610ff7565b90508373ffffffffffffffffffffffffffffffffffffffff168173ffffffffffffffffffffffffffffffffffffffff161461094d578382826040517f64283d7b00000000000000000000000000000000000000000000000000000000815260040161094493929190612561565b60405180910390fd5b50505050565b61095b6119d3565b60088054905082106109a2576040517f08c379a0000000000000000000000000000000000000000000000000000000008152600401610999906125e4565b60405180910390fd5b600882815481106109b6576109b5612604565b5b90600052602060002090600302016040518060600160405290816000820180546109df9061223b565b80601f0160208091040260200160405190810160405280929190818152602001828054610a0b9061223b565b8015610a585780601f10610a2d57610100808354040283529160200191610a58565b820191906000526020600020905b815481529060010190602001808311610a3b57829003601f168201915b50505050508152602001600182018054610a719061223b565b80601f0160208091040260200160405190810160405280929190818152602001828054610a9d9061223b565b8015610aea5780601f10610abf57610100808354040283529160200191610aea565b820191906000526020600020905b815481529060010190602001808311610acd57829003601f168201915b50505050508152602001600282018054610b039061223b565b80601f0160208091040260200160405190810160405280929190818152602001828054610b2f9061223b565b8015610b7c5780601f10610b5157610100808354040283529160200191610b7c565b820191906000526020600020905b815481529060010190602001808311610b5f57829003601f168201915b5050505050815250509050919050565b610ba783838360405180602001604052806000815250610d37565b505050565b6000610bb782610efa565b9050919050565b6000600654905090565b60008073ffffffffffffffffffffffffffffffffffffffff168273ffffffffffffffffffffffffffffffffffffffff1603610c3b5760006040517f89c62b64000000000000000000000000000000000000000000000000000000008152600401610c329190611c19565b60405180910390fd5b600360008373ffffffffffffffffffffffffffffffffffffffff1673ffffffffffffffffffffffffffffffffffffffff168152602001908152602001600020549050919050565b6000600880549050905090565b606060018054610c9e9061223b565b80601f0160208091040260200160405190810160405280929190818152602001828054610cca9061223b565b8015610d175780601f10610cec57610100808354040283529160200191610d17565b820191906000526020600020905b815481529060010190602001808311610cfa57829003601f168201915b5050505050905090565b610d33610d2c610fbf565b8383611211565b5050565b610d42848484610851565b610d4e84848484611380565b50505050565b6060600760008381526020019081526020016000206002018054610d779061223b565b80601f0160208091040260200160405190810160405280929190818152602001828054610da39061223b565b8015610df05780601f10610dc557610100808354040283529160200191610df0565b820191906000526020600020905b815481529060010190602001808311610dd357829003601f168201915b50505050509050919050565b6000600560008473ffffffffffffffffffffffffffffffffffffffff1673ffffffffffffffffffffffffffffffffffffffff16815260200190815260200160002060008373ffffffffffffffffffffffffffffffffffffffff1673ffffffffffffffffffffffffffffffffffffffff16815260200190815260200160002060009054906101000a900460ff16905092915050565b60007f01ffc9a7000000000000000000000000000000000000000000000000000000007bffffffffffffffffffffffffffffffffffffffffffffffffffffffff1916827bffffffffffffffffffffffffffffffffffffffffffffffffffffffff1916149050919050565b600080610f0683611537565b9050600073ffffffffffffffffffffffffffffffffffffffff168173ffffffffffffffffffffffffffffffffffffffff1603610f7957826040517f7e273289000000000000000000000000000000000000000000000000000000008152600401610f709190611ff4565b60405180910390fd5b80915050919050565b60006004600083815260200190815260200160002060009054906101000a900473ffffffffffffffffffffffffffffffffffffffff169050919050565b600033905090565b610fd48383836001611574565b505050565b610ff3828260405180602001604052806000815250611739565b5050565b60008061100384611537565b9050600073ffffffffffffffffffffffffffffffffffffffff168373ffffffffffffffffffffffffffffffffffffffff161461104557611044818486611755565b5b600073ffffffffffffffffffffffffffffffffffffffff168173ffffffffffffffffffffffffffffffffffffffff16146110d657611087600085600080611574565b6001600360008373ffffffffffffffffffffffffffffffffffffffff1673ffffffffffffffffffffffffffffffffffffffff168152602001908152602001600020600082825403925050819055505b600073ffffffffffffffffffffffffffffffffffffffff168573ffffffffffffffffffffffffffffffffffffffff1614611159576001600360008773ffffffffffffffffffffffffffffffffffffffff1673ffffffffffffffffffffffffffffffffffffffff168152602001908152602001600020600082825401925050819055505b846002600086815260200190815260200160002060006101000a81548173ffffffffffffffffffffffffffffffffffffffff021916908373ffffffffffffffffffffffffffffffffffffffff160217905550838573ffffffffffffffffffffffffffffffffffffffff168273ffffffffffffffffffffffffffffffffffffffff167fddf252ad1be2c89b69c2b068fc378daa952ba7f163c4a11628f55a4df523b3ef60405160405180910390a4809150509392505050565b600073ffffffffffffffffffffffffffffffffffffffff168273ffffffffffffffffffffffffffffffffffffffff160361128257816040517f5b08ba180000000000000000000000000000000000000000000000000000000081526004016112799190611c19565b60405180910390fd5b80600560008573ffffffffffffffffffffffffffffffffffffffff1673ffffffffffffffffffffffffffffffffffffffff16815260200190815260200160002060008473ffffffffffffffffffffffffffffffffffffffff1673ffffffffffffffffffffffffffffffffffffffff16815260200190815260200160002060006101000a81548160ff0219169083151502179055508173ffffffffffffffffffffffffffffffffffffffff168373ffffffffffffffffffffffffffffffffffffffff167f17307eab39ab6107e8899845ad3d59bd9653f200f220920489ca2b5937696c31836040516113739190611aa8565b60405180910390a3505050565b60008373ffffffffffffffffffffffffffffffffffffffff163b1115611531578273ffffffffffffffffffffffffffffffffffffffff1663150b7a026113c4610fbf565b8685856040518563ffffffff1660e01b81526004016113e69493929190612688565b6020604051808303816000875af192505050801561142257506040513d601f19601f8201168201806040525081019061141f91906126e9565b60015b6114a6573d8060008114611452576040519150601f19603f3d011682016040523d82523d6000602084013e611457565b606091505b50600081510361149e57836040517f64a0ae920000000000000000000000000000000000000000000000000000000081526004016114959190611c19565b60405180910390fd5b805181602001fd5b63150b7a0260e01b7bffffffffffffffffffffffffffffffffffffffffffffffffffffffff1916817bffffffffffffffffffffffffffffffffffffffffffffffffffffffff19161461152f57836040517f64a0ae920000000000000000000000000000000000000000000000000000000081526004016115269190611c19565b60405180910390fd5b505b50505050565b60006002600083815260200190815260200160002060009054906101000a900473ffffffffffffffffffffffffffffffffffffffff169050919050565b80806115ad5750600073ffffffffffffffffffffffffffffffffffffffff168273ffffffffffffffffffffffffffffffffffffffff1614155b156116e15760006115bd84610efa565b9050600073ffffffffffffffffffffffffffffffffffffffff168373ffffffffffffffffffffffffffffffffffffffff161415801561162857508273ffffffffffffffffffffffffffffffffffffffff168173ffffffffffffffffffffffffffffffffffffffff1614155b801561163b57506116398184610dfc565b155b1561167d57826040517fa9fbf51f0000000000000000000000000000000000000000000000000000000081526004016116749190611c19565b60405180910390fd5b81156116df57838573ffffffffffffffffffffffffffffffffffffffff168273ffffffffffffffffffffffffffffffffffffffff167f8c5be1e5ebec7d5bd14f71427d1e84f3dd0314c0f7b2291e5b200ac8c7c3b92560405160405180910390a45b505b836004600085815260200190815260200160002060006101000a81548173ffffffffffffffffffffffffffffffffffffffff021916908373ffffffffffffffffffffffffffffffffffffffff16021790555050505050565b6117438383611819565b6117506000848484611380565b505050565b611760838383611912565b61181457600073ffffffffffffffffffffffffffffffffffffffff168373ffffffffffffffffffffffffffffffffffffffff16036117d557806040517f7e2732890000000000000000000000000000000000000000000000000000000081526004016117cc9190611ff4565b60405180910390fd5b81816040517f177e802f00000000000000000000000000000000000000000000000000000000815260040161180b929190612716565b60405180910390fd5b505050565b600073ffffffffffffffffffffffffffffffffffffffff168273ffffffffffffffffffffffffffffffffffffffff160361188b5760006040517f64a0ae920000000000000000000000000000000000000000000000000000000081526004016118829190611c19565b60405180910390fd5b600061189983836000610ff7565b9050600073ffffffffffffffffffffffffffffffffffffffff168173ffffffffffffffffffffffffffffffffffffffff161461190d5760006040517f73c6ac6e0000000000000000000000000000000000000000000000000000000081526004016119049190611c19565b60405180910390fd5b505050565b60008073ffffffffffffffffffffffffffffffffffffffff168373ffffffffffffffffffffffffffffffffffffffff16141580156119ca57508273ffffffffffffffffffffffffffffffffffffffff168473ffffffffffffffffffffffffffffffffffffffff16148061198b575061198a8484610dfc565b5b806119c957508273ffffffffffffffffffffffffffffffffffffffff166119b183610f82565b73ffffffffffffffffffffffffffffffffffffffff16145b5b90509392505050565b60405180606001604052806060815260200160608152602001606081525090565b6000604051905090565b600080fd5b600080fd5b60007fffffffff0000000000000000000000000000000000000000000000000000000082169050919050565b611a3d81611a08565b8114611a4857600080fd5b50565b600081359050611a5a81611a34565b92915050565b600060208284031215611a7657611a756119fe565b5b6000611a8484828501611a4b565b91505092915050565b60008115159050919050565b611aa281611a8d565b82525050565b6000602082019050611abd6000830184611a99565b92915050565b600081519050919050565b600082825260208201905092915050565b60005b83811015611afd578082015181840152602081019050611ae2565b60008484015250505050565b6000601f19601f8301169050919050565b6000611b2582611ac3565b611b2f8185611ace565b9350611b3f818560208601611adf565b611b4881611b09565b840191505092915050565b60006020820190508181036000830152611b6d8184611b1a565b905092915050565b6000819050919050565b611b8881611b75565b8114611b9357600080fd5b50565b600081359050611ba581611b7f565b92915050565b600060208284031215611bc157611bc06119fe565b5b6000611bcf84828501611b96565b91505092915050565b600073ffffffffffffffffffffffffffffffffffffffff82169050919050565b6000611c0382611bd8565b9050919050565b611c1381611bf8565b82525050565b6000602082019050611c2e6000830184611c0a565b92915050565b611c3d81611bf8565b8114611c4857600080fd5b50565b600081359050611c5a81611c34565b92915050565b60008060408385031215611c7757611c766119fe565b5b6000611c8585828601611c4b565b9250506020611c9685828601611b96565b9150509250929050565b600080fd5b600080fd5b7f4e487b7100000000000000000000000000000000000000000000000000000000600052604160045260246000fd5b611ce282611b09565b810181811067ffffffffffffffff82111715611d0157611d00611caa565b5b80604052505050565b6000611d146119f4565b9050611d208282611cd9565b919050565b600067ffffffffffffffff821115611d4057611d3f611caa565b5b611d4982611b09565b9050602081019050919050565b82818337600083830152505050565b6000611d78611d7384611d25565b611d0a565b905082815260208101848484011115611d9457611d93611ca5565b5b611d9f848285611d56565b509392505050565b600082601f830112611dbc57611dbb611ca0565b5b8135611dcc848260208601611d65565b91505092915050565b600080600060608486031215611dee57611ded6119fe565b5b600084013567ffffffffffffffff811115611e0c57611e0b611a03565b5b611e1886828701611da7565b935050602084013567ffffffffffffffff811115611e3957611e38611a03565b5b611e4586828701611da7565b925050604084013567ffffffffffffffff811115611e6657611e65611a03565b5b611e7286828701611da7565b9150509250925092565b60006060820190508181036000830152611e968186611b1a565b90508181036020830152611eaa8185611b1a565b90508181036040830152611ebe8184611b1a565b9050949350505050565b600080600060608486031215611ee157611ee06119fe565b5b6000611eef86828701611c4b565b9350506020611f0086828701611c4b565b9250506040611f1186828701611b96565b9150509250925092565b600082825260208201905092915050565b6000611f3782611ac3565b611f418185611f1b565b9350611f51818560208601611adf565b611f5a81611b09565b840191505092915050565b60006060830160008301518482036000860152611f828282611f2c565b91505060208301518482036020860152611f9c8282611f2c565b91505060408301518482036040860152611fb68282611f2c565b9150508091505092915050565b60006020820190508181036000830152611fdd8184611f65565b905092915050565b611fee81611b75565b82525050565b60006020820190506120096000830184611fe5565b92915050565b600060208284031215612025576120246119fe565b5b600061203384828501611c4b565b91505092915050565b61204581611a8d565b811461205057600080fd5b50565b6000813590506120628161203c565b92915050565b6000806040838503121561207f5761207e6119fe565b5b600061208d85828601611c4b565b925050602061209e85828601612053565b9150509250929050565b600067ffffffffffffffff8211156120c3576120c2611caa565b5b6120cc82611b09565b9050602081019050919050565b60006120ec6120e7846120a8565b611d0a565b90508281526020810184848401111561210857612107611ca5565b5b612113848285611d56565b509392505050565b600082601f8301126121305761212f611ca0565b5b81356121408482602086016120d9565b91505092915050565b60008060008060808587031215612163576121626119fe565b5b600061217187828801611c4b565b945050602061218287828801611c4b565b935050604061219387828801611b96565b925050606085013567ffffffffffffffff8111156121b4576121b3611a03565b5b6121c08782880161211b565b91505092959194509250565b600080604083850312156121e3576121e26119fe565b5b60006121f185828601611c4b565b925050602061220285828601611c4b565b9150509250929050565b7f4e487b7100000000000000000000000000000000000000000000000000000000600052602260045260246000fd5b6000600282049050600182168061225357607f821691505b6020821081036122665761226561220c565b5b50919050565b60008190508160005260206000209050919050565b60006020601f8301049050919050565b600082821b905092915050565b6000600883026122ce7fffffffffffffffffffffffffffffffffffffffffffffffffffffffffffffffff82612291565b6122d88683612291565b95508019841693508086168417925050509392505050565b6000819050919050565b600061231561231061230b84611b75565b6122f0565b611b75565b9050919050565b6000819050919050565b61232f836122fa565b61234361233b8261231c565b84845461229e565b825550505050565b600090565b61235861234b565b612363818484612326565b505050565b5b818110156123875761237c600082612350565b600181019050612369565b5050565b601f8211156123cc5761239d8161226c565b6123a684612281565b810160208510156123b5578190505b6123c96123c185612281565b830182612368565b50505b505050565b600082821c905092915050565b60006123ef600019846008026123d1565b1980831691505092915050565b600061240883836123de565b9150826002028217905092915050565b61242182611ac3565b67ffffffffffffffff81111561243a57612439611caa565b5b612444825461223b565b61244f82828561238b565b600060209050601f8311600181146124825760008415612470578287015190505b61247a85826123fc565b8655506124e2565b601f1984166124908661226c565b60005b828110156124b857848901518255600182019150602085019450602081019050612493565b868310156124d557848901516124d1601f8916826123de565b8355505b6001600288020188555050505b505050505050565b7f4e487b7100000000000000000000000000000000000000000000000000000000600052601160045260246000fd5b600061252482611b75565b91507fffffffffffffffffffffffffffffffffffffffffffffffffffffffffffffffff8203612556576125556124ea565b5b600182019050919050565b60006060820190506125766000830186611c0a565b6125836020830185611fe5565b6125906040830184611c0a565b949350505050565b7f496e646578206f7574206f6620626f756e647300000000000000000000000000600082015250565b60006125ce601383611ace565b91506125d982612598565b602082019050919050565b600060208201905081810360008301526125fd816125c1565b9050919050565b7f4e487b7100000000000000000000000000000000000000000000000000000000600052603260045260246000fd5b600081519050919050565b600082825260208201905092915050565b600061265a82612633565b612664818561263e565b9350612674818560208601611adf565b61267d81611b09565b840191505092915050565b600060808201905061269d6000830187611c0a565b6126aa6020830186611c0a565b6126b76040830185611fe5565b81810360608301526126c9818461264f565b905095945050505050565b6000815190506126e381611a34565b92915050565b6000602082840312156126ff576126fe6119fe565b5b600061270d848285016126d4565b91505092915050565b600060408201905061272b6000830185611c0a565b6127386020830184611fe5565b939250505056fea2646970667358221220bbb8eefe9cfba287e7302d0238a9c3f06d7cd7fa1410b00a4b406e75c6947db764736f6c63430008140033",
    "linkReferences": {},
    "deployedLinkReferences": {}
}